{"abi":[{"type":"constructor","inputs":[{"name":"_strategyManager","type":"address","internalType":"contract IStrategyManager"},{"name":"_slasher","type":"address","internalType":"contract ISlasher"},{"name":"_eigenPodManager","type":"address","internalType":"contract IEigenPodManager"}],"stateMutability":"nonpayable"},{"type":"function","name":"DELEGATION_APPROVAL_TYPEHASH","inputs":[],"outputs":[{"name":"","type":"bytes32","internalType":"bytes32"}],"stateMutability":"view"},{"type":"function","name":"DOMAIN_TYPEHASH","inputs":[],"outputs":[{"name":"","type":"bytes32","internalType":"bytes32"}],"stateMutability":"view"},{"type":"function","name":"MAX_STAKER_OPT_OUT_WINDOW_BLOCKS","inputs":[],"outputs":[{"name":"","type":"uint256","internalType":"uint256"}],"stateMutability":"view"},{"type":"function","name":"MAX_WITHDRAWAL_DELAY_BLOCKS","inputs":[],"outputs":[{"name":"","type":"uint256","internalType":"uint256"}],"stateMutability":"view"},{"type":"function","name":"STAKER_DELEGATION_TYPEHASH","inputs":[],"outputs":[{"name":"","type":"bytes32","internalType":"bytes32"}],"stateMutability":"view"},{"type":"function","name":"beaconChainETHStrategy","inputs":[],"outputs":[{"name":"","type":"address","internalType":"contract IStrategy"}],"stateMutability":"view"},{"type":"function","name":"calculateCurrentStakerDelegationDigestHash","inputs":[{"name":"staker","type":"address","internalType":"address"},{"name":"operator","type":"address","internalType":"address"},{"name":"expiry","type":"uint256","internalType":"uint256"}],"outputs":[{"name":"","type":"bytes32","internalType":"bytes32"}],"stateMutability":"view"},{"type":"function","name":"calculateDelegationApprovalDigestHash","inputs":[{"name":"staker","type":"address","internalType":"address"},{"name":"operator","type":"address","internalType":"address"},{"name":"_delegationApprover","type":"address","internalType":"address"},{"name":"approverSalt","type":"bytes32","internalType":"bytes32"},{"name":"expiry","type":"uint256","internalType":"uint256"}],"outputs":[{"name":"","type":"bytes32","internalType":"bytes32"}],"stateMutability":"view"},{"type":"function","name":"calculateStakerDelegationDigestHash","inputs":[{"name":"staker","type":"address","internalType":"address"},{"name":"_stakerNonce","type":"uint256","internalType":"uint256"},{"name":"operator","type":"address","internalType":"address"},{"name":"expiry","type":"uint256","internalType":"uint256"}],"outputs":[{"name":"","type":"bytes32","internalType":"bytes32"}],"stateMutability":"view"},{"type":"function","name":"calculateWithdrawalRoot","inputs":[{"name":"withdrawal","type":"tuple","internalType":"struct IDelegationManager.Withdrawal","components":[{"name":"staker","type":"address","internalType":"address"},{"name":"delegatedTo","type":"address","internalType":"address"},{"name":"withdrawer","type":"address","internalType":"address"},{"name":"nonce","type":"uint256","internalType":"uint256"},{"name":"startBlock","type":"uint32","internalType":"uint32"},{"name":"strategies","type":"address[]","internalType":"contract IStrategy[]"},{"name":"shares","type":"uint256[]","internalType":"uint256[]"}]}],"outputs":[{"name":"","type":"bytes32","internalType":"bytes32"}],"stateMutability":"pure"},{"type":"function","name":"completeQueuedWithdrawal","inputs":[{"name":"withdrawal","type":"tuple","internalType":"struct IDelegationManager.Withdrawal","components":[{"name":"staker","type":"address","internalType":"address"},{"name":"delegatedTo","type":"address","internalType":"address"},{"name":"withdrawer","type":"address","internalType":"address"},{"name":"nonce","type":"uint256","internalType":"uint256"},{"name":"startBlock","type":"uint32","internalType":"uint32"},{"name":"strategies","type":"address[]","internalType":"contract IStrategy[]"},{"name":"shares","type":"uint256[]","internalType":"uint256[]"}]},{"name":"tokens","type":"address[]","internalType":"contract IERC20[]"},{"name":"middlewareTimesIndex","type":"uint256","internalType":"uint256"},{"name":"receiveAsTokens","type":"bool","internalType":"bool"}],"outputs":[],"stateMutability":"nonpayable"},{"type":"function","name":"completeQueuedWithdrawals","inputs":[{"name":"withdrawals","type":"tuple[]","internalType":"struct IDelegationManager.Withdrawal[]","components":[{"name":"staker","type":"address","internalType":"address"},{"name":"delegatedTo","type":"address","internalType":"address"},{"name":"withdrawer","type":"address","internalType":"address"},{"name":"nonce","type":"uint256","internalType":"uint256"},{"name":"startBlock","type":"uint32","internalType":"uint32"},{"name":"strategies","type":"address[]","internalType":"contract IStrategy[]"},{"name":"shares","type":"uint256[]","internalType":"uint256[]"}]},{"name":"tokens","type":"address[][]","internalType":"contract IERC20[][]"},{"name":"middlewareTimesIndexes","type":"uint256[]","internalType":"uint256[]"},{"name":"receiveAsTokens","type":"bool[]","internalType":"bool[]"}],"outputs":[],"stateMutability":"nonpayable"},{"type":"function","name":"cumulativeWithdrawalsQueued","inputs":[{"name":"","type":"address","internalType":"address"}],"outputs":[{"name":"","type":"uint256","internalType":"uint256"}],"stateMutability":"view"},{"type":"function","name":"decreaseDelegatedShares","inputs":[{"name":"staker","type":"address","internalType":"address"},{"name":"strategy","type":"address","internalType":"contract IStrategy"},{"name":"shares","type":"uint256","internalType":"uint256"}],"outputs":[],"stateMutability":"nonpayable"},{"type":"function","name":"delegateTo","inputs":[{"name":"operator","type":"address","internalType":"address"},{"name":"approverSignatureAndExpiry","type":"tuple","internalType":"struct ISignatureUtils.SignatureWithExpiry","components":[{"name":"signature","type":"bytes","internalType":"bytes"},{"name":"expiry","type":"uint256","internalType":"uint256"}]},{"name":"approverSalt","type":"bytes32","internalType":"bytes32"}],"outputs":[],"stateMutability":"nonpayable"},{"type":"function","name":"delegateToBySignature","inputs":[{"name":"staker","type":"address","internalType":"address"},{"name":"operator","type":"address","internalType":"address"},{"name":"stakerSignatureAndExpiry","type":"tuple","internalType":"struct ISignatureUtils.SignatureWithExpiry","components":[{"name":"signature","type":"bytes","internalType":"bytes"},{"name":"expiry","type":"uint256","internalType":"uint256"}]},{"name":"approverSignatureAndExpiry","type":"tuple","internalType":"struct ISignatureUtils.SignatureWithExpiry","components":[{"name":"signature","type":"bytes","internalType":"bytes"},{"name":"expiry","type":"uint256","internalType":"uint256"}]},{"name":"approverSalt","type":"bytes32","internalType":"bytes32"}],"outputs":[],"stateMutability":"nonpayable"},{"type":"function","name":"delegatedTo","inputs":[{"name":"","type":"address","internalType":"address"}],"outputs":[{"name":"","type":"address","internalType":"address"}],"stateMutability":"view"},{"type":"function","name":"delegationApprover","inputs":[{"name":"operator","type":"address","internalType":"address"}],"outputs":[{"name":"","type":"address","internalType":"address"}],"stateMutability":"view"},{"type":"function","name":"delegationApproverSaltIsSpent","inputs":[{"name":"","type":"address","internalType":"address"},{"name":"","type":"bytes32","internalType":"bytes32"}],"outputs":[{"name":"","type":"bool","internalType":"bool"}],"stateMutability":"view"},{"type":"function","name":"domainSeparator","inputs":[],"outputs":[{"name":"","type":"bytes32","internalType":"bytes32"}],"stateMutability":"view"},{"type":"function","name":"eigenPodManager","inputs":[],"outputs":[{"name":"","type":"address","internalType":"contract IEigenPodManager"}],"stateMutability":"view"},{"type":"function","name":"getDelegatableShares","inputs":[{"name":"staker","type":"address","internalType":"address"}],"outputs":[{"name":"","type":"address[]","internalType":"contract IStrategy[]"},{"name":"","type":"uint256[]","internalType":"uint256[]"}],"stateMutability":"view"},{"type":"function","name":"getOperatorShares","inputs":[{"name":"operator","type":"address","internalType":"address"},{"name":"strategies","type":"address[]","internalType":"contract IStrategy[]"}],"outputs":[{"name":"","type":"uint256[]","internalType":"uint256[]"}],"stateMutability":"view"},{"type":"function","name":"getWithdrawalDelay","inputs":[{"name":"strategies","type":"address[]","internalType":"contract IStrategy[]"}],"outputs":[{"name":"","type":"uint256","internalType":"uint256"}],"stateMutability":"view"},{"type":"function","name":"increaseDelegatedShares","inputs":[{"name":"staker","type":"address","internalType":"address"},{"name":"strategy","type":"address","internalType":"contract IStrategy"},{"name":"shares","type":"uint256","internalType":"uint256"}],"outputs":[],"stateMutability":"nonpayable"},{"type":"function","name":"initialize","inputs":[{"name":"initialOwner","type":"address","internalType":"address"},{"name":"_pauserRegistry","type":"address","internalType":"contract IPauserRegistry"},{"name":"initialPausedStatus","type":"uint256","internalType":"uint256"},{"name":"_minWithdrawalDelayBlocks","type":"uint256","internalType":"uint256"},{"name":"_strategies","type":"address[]","internalType":"contract IStrategy[]"},{"name":"_withdrawalDelayBlocks","type":"uint256[]","internalType":"uint256[]"}],"outputs":[],"stateMutability":"nonpayable"},{"type":"function","name":"isDelegated","inputs":[{"name":"staker","type":"address","internalType":"address"}],"outputs":[{"name":"","type":"bool","internalType":"bool"}],"stateMutability":"view"},{"type":"function","name":"isOperator","inputs":[{"name":"operator","type":"address","internalType":"address"}],"outputs":[{"name":"","type":"bool","internalType":"bool"}],"stateMutability":"view"},{"type":"function","name":"minWithdrawalDelayBlocks","inputs":[],"outputs":[{"name":"","type":"uint256","internalType":"uint256"}],"stateMutability":"view"},{"type":"function","name":"modifyOperatorDetails","inputs":[{"name":"newOperatorDetails","type":"tuple","internalType":"struct IDelegationManager.OperatorDetails","components":[{"name":"__deprecated_earningsReceiver","type":"address","internalType":"address"},{"name":"delegationApprover","type":"address","internalType":"address"},{"name":"stakerOptOutWindowBlocks","type":"uint32","internalType":"uint32"}]}],"outputs":[],"stateMutability":"nonpayable"},{"type":"function","name":"operatorDetails","inputs":[{"name":"operator","type":"address","internalType":"address"}],"outputs":[{"name":"","type":"tuple","internalType":"struct IDelegationManager.OperatorDetails","components":[{"name":"__deprecated_earningsReceiver","type":"address","internalType":"address"},{"name":"delegationApprover","type":"address","internalType":"address"},{"name":"stakerOptOutWindowBlocks","type":"uint32","internalType":"uint32"}]}],"stateMutability":"view"},{"type":"function","name":"operatorShares","inputs":[{"name":"","type":"address","internalType":"address"},{"name":"","type":"address","internalType":"contract IStrategy"}],"outputs":[{"name":"","type":"uint256","internalType":"uint256"}],"stateMutability":"view"},{"type":"function","name":"owner","inputs":[],"outputs":[{"name":"","type":"address","internalType":"address"}],"stateMutability":"view"},{"type":"function","name":"pause","inputs":[{"name":"newPausedStatus","type":"uint256","internalType":"uint256"}],"outputs":[],"stateMutability":"nonpayable"},{"type":"function","name":"pauseAll","inputs":[],"outputs":[],"stateMutability":"nonpayable"},{"type":"function","name":"paused","inputs":[{"name":"index","type":"uint8","internalType":"uint8"}],"outputs":[{"name":"","type":"bool","internalType":"bool"}],"stateMutability":"view"},{"type":"function","name":"paused","inputs":[],"outputs":[{"name":"","type":"uint256","internalType":"uint256"}],"stateMutability":"view"},{"type":"function","name":"pauserRegistry","inputs":[],"outputs":[{"name":"","type":"address","internalType":"contract IPauserRegistry"}],"stateMutability":"view"},{"type":"function","name":"pendingWithdrawals","inputs":[{"name":"","type":"bytes32","internalType":"bytes32"}],"outputs":[{"name":"","type":"bool","internalType":"bool"}],"stateMutability":"view"},{"type":"function","name":"queueWithdrawals","inputs":[{"name":"queuedWithdrawalParams","type":"tuple[]","internalType":"struct IDelegationManager.QueuedWithdrawalParams[]","components":[{"name":"strategies","type":"address[]","internalType":"contract IStrategy[]"},{"name":"shares","type":"uint256[]","internalType":"uint256[]"},{"name":"withdrawer","type":"address","internalType":"address"}]}],"outputs":[{"name":"","type":"bytes32[]","internalType":"bytes32[]"}],"stateMutability":"nonpayable"},{"type":"function","name":"registerAsOperator","inputs":[{"name":"registeringOperatorDetails","type":"tuple","internalType":"struct IDelegationManager.OperatorDetails","components":[{"name":"__deprecated_earningsReceiver","type":"address","internalType":"address"},{"name":"delegationApprover","type":"address","internalType":"address"},{"name":"stakerOptOutWindowBlocks","type":"uint32","internalType":"uint32"}]},{"name":"metadataURI","type":"string","internalType":"string"}],"outputs":[],"stateMutability":"nonpayable"},{"type":"function","name":"renounceOwnership","inputs":[],"outputs":[],"stateMutability":"nonpayable"},{"type":"function","name":"setMinWithdrawalDelayBlocks","inputs":[{"name":"newMinWithdrawalDelayBlocks","type":"uint256","internalType":"uint256"}],"outputs":[],"stateMutability":"nonpayable"},{"type":"function","name":"setPauserRegistry","inputs":[{"name":"newPauserRegistry","type":"address","internalType":"contract IPauserRegistry"}],"outputs":[],"stateMutability":"nonpayable"},{"type":"function","name":"setStrategyWithdrawalDelayBlocks","inputs":[{"name":"strategies","type":"address[]","internalType":"contract IStrategy[]"},{"name":"withdrawalDelayBlocks","type":"uint256[]","internalType":"uint256[]"}],"outputs":[],"stateMutability":"nonpayable"},{"type":"function","name":"slasher","inputs":[],"outputs":[{"name":"","type":"address","internalType":"contract ISlasher"}],"stateMutability":"view"},{"type":"function","name":"stakerNonce","inputs":[{"name":"","type":"address","internalType":"address"}],"outputs":[{"name":"","type":"uint256","internalType":"uint256"}],"stateMutability":"view"},{"type":"function","name":"stakerOptOutWindowBlocks","inputs":[{"name":"operator","type":"address","internalType":"address"}],"outputs":[{"name":"","type":"uint256","internalType":"uint256"}],"stateMutability":"view"},{"type":"function","name":"strategyManager","inputs":[],"outputs":[{"name":"","type":"address","internalType":"contract IStrategyManager"}],"stateMutability":"view"},{"type":"function","name":"strategyWithdrawalDelayBlocks","inputs":[{"name":"","type":"address","internalType":"contract IStrategy"}],"outputs":[{"name":"","type":"uint256","internalType":"uint256"}],"stateMutability":"view"},{"type":"function","name":"transferOwnership","inputs":[{"name":"newOwner","type":"address","internalType":"address"}],"outputs":[],"stateMutability":"nonpayable"},{"type":"function","name":"undelegate","inputs":[{"name":"staker","type":"address","internalType":"address"}],"outputs":[{"name":"withdrawalRoots","type":"bytes32[]","internalType":"bytes32[]"}],"stateMutability":"nonpayable"},{"type":"function","name":"unpause","inputs":[{"name":"newPausedStatus","type":"uint256","internalType":"uint256"}],"outputs":[],"stateMutability":"nonpayable"},{"type":"function","name":"updateOperatorMetadataURI","inputs":[{"name":"metadataURI","type":"string","internalType":"string"}],"outputs":[],"stateMutability":"nonpayable"},{"type":"event","name":"Initialized","inputs":[{"name":"version","type":"uint8","indexed":false,"internalType":"uint8"}],"anonymous":false},{"type":"event","name":"MinWithdrawalDelayBlocksSet","inputs":[{"name":"previousValue","type":"uint256","indexed":false,"internalType":"uint256"},{"name":"newValue","type":"uint256","indexed":false,"internalType":"uint256"}],"anonymous":false},{"type":"event","name":"OperatorDetailsModified","inputs":[{"name":"operator","type":"address","indexed":true,"internalType":"address"},{"name":"newOperatorDetails","type":"tuple","indexed":false,"internalType":"struct IDelegationManager.OperatorDetails","components":[{"name":"__deprecated_earningsReceiver","type":"address","internalType":"address"},{"name":"delegationApprover","type":"address","internalType":"address"},{"name":"stakerOptOutWindowBlocks","type":"uint32","internalType":"uint32"}]}],"anonymous":false},{"type":"event","name":"OperatorMetadataURIUpdated","inputs":[{"name":"operator","type":"address","indexed":true,"internalType":"address"},{"name":"metadataURI","type":"string","indexed":false,"internalType":"string"}],"anonymous":false},{"type":"event","name":"OperatorRegistered","inputs":[{"name":"operator","type":"address","indexed":true,"internalType":"address"},{"name":"operatorDetails","type":"tuple","indexed":false,"internalType":"struct IDelegationManager.OperatorDetails","components":[{"name":"__deprecated_earningsReceiver","type":"address","internalType":"address"},{"name":"delegationApprover","type":"address","internalType":"address"},{"name":"stakerOptOutWindowBlocks","type":"uint32","internalType":"uint32"}]}],"anonymous":false},{"type":"event","name":"OperatorSharesDecreased","inputs":[{"name":"operator","type":"address","indexed":true,"internalType":"address"},{"name":"staker","type":"address","indexed":false,"internalType":"address"},{"name":"strategy","type":"address","indexed":false,"internalType":"contract IStrategy"},{"name":"shares","type":"uint256","indexed":false,"internalType":"uint256"}],"anonymous":false},{"type":"event","name":"OperatorSharesIncreased","inputs":[{"name":"operator","type":"address","indexed":true,"internalType":"address"},{"name":"staker","type":"address","indexed":false,"internalType":"address"},{"name":"strategy","type":"address","indexed":false,"internalType":"contract IStrategy"},{"name":"shares","type":"uint256","indexed":false,"internalType":"uint256"}],"anonymous":false},{"type":"event","name":"OwnershipTransferred","inputs":[{"name":"previousOwner","type":"address","indexed":true,"internalType":"address"},{"name":"newOwner","type":"address","indexed":true,"internalType":"address"}],"anonymous":false},{"type":"event","name":"Paused","inputs":[{"name":"account","type":"address","indexed":true,"internalType":"address"},{"name":"newPausedStatus","type":"uint256","indexed":false,"internalType":"uint256"}],"anonymous":false},{"type":"event","name":"PauserRegistrySet","inputs":[{"name":"pauserRegistry","type":"address","indexed":false,"internalType":"contract IPauserRegistry"},{"name":"newPauserRegistry","type":"address","indexed":false,"internalType":"contract IPauserRegistry"}],"anonymous":false},{"type":"event","name":"StakerDelegated","inputs":[{"name":"staker","type":"address","indexed":true,"internalType":"address"},{"name":"operator","type":"address","indexed":true,"internalType":"address"}],"anonymous":false},{"type":"event","name":"StakerForceUndelegated","inputs":[{"name":"staker","type":"address","indexed":true,"internalType":"address"},{"name":"operator","type":"address","indexed":true,"internalType":"address"}],"anonymous":false},{"type":"event","name":"StakerUndelegated","inputs":[{"name":"staker","type":"address","indexed":true,"internalType":"address"},{"name":"operator","type":"address","indexed":true,"internalType":"address"}],"anonymous":false},{"type":"event","name":"StrategyWithdrawalDelayBlocksSet","inputs":[{"name":"strategy","type":"address","indexed":false,"internalType":"contract IStrategy"},{"name":"previousValue","type":"uint256","indexed":false,"internalType":"uint256"},{"name":"newValue","type":"uint256","indexed":false,"internalType":"uint256"}],"anonymous":false},{"type":"event","name":"Unpaused","inputs":[{"name":"account","type":"address","indexed":true,"internalType":"address"},{"name":"newPausedStatus","type":"uint256","indexed":false,"internalType":"uint256"}],"anonymous":false},{"type":"event","name":"WithdrawalCompleted","inputs":[{"name":"withdrawalRoot","type":"bytes32","indexed":false,"internalType":"bytes32"}],"anonymous":false},{"type":"event","name":"WithdrawalQueued","inputs":[{"name":"withdrawalRoot","type":"bytes32","indexed":false,"internalType":"bytes32"},{"name":"withdrawal","type":"tuple","indexed":false,"internalType":"struct IDelegationManager.Withdrawal","components":[{"name":"staker","type":"address","internalType":"address"},{"name":"delegatedTo","type":"address","internalType":"address"},{"name":"withdrawer","type":"address","internalType":"address"},{"name":"nonce","type":"uint256","internalType":"uint256"},{"name":"startBlock","type":"uint32","internalType":"uint32"},{"name":"strategies","type":"address[]","internalType":"contract IStrategy[]"},{"name":"shares","type":"uint256[]","internalType":"uint256[]"}]}],"anonymous":false}],"bytecode":{"object":"0x6101006040523480156200001257600080fd5b5060405162005c4638038062005c46833981016040819052620000359162000140565b6001600160a01b0380841660805280821660c052821660a0526200005862000065565b50504660e0525062000194565b600054610100900460ff1615620000d25760405162461bcd60e51b815260206004820152602760248201527f496e697469616c697a61626c653a20636f6e747261637420697320696e697469604482015266616c697a696e6760c81b606482015260840160405180910390fd5b60005460ff908116101562000125576000805460ff191660ff9081179091556040519081527f7f26b83ff96e1f2b6a682f133852f6798a09c465da95921460cefb38474024989060200160405180910390a15b565b6001600160a01b03811681146200013d57600080fd5b50565b6000806000606084860312156200015657600080fd5b8351620001638162000127565b6020850151909350620001768162000127565b6040850151909250620001898162000127565b809150509250925092565b60805160a05160c05160e051615a1d6200022960003960006126a00152600081816105b10152818161102e015281816113aa01528181611c23015281816129f901528181613eac0152614398015260006107620152600081816104f901528181610ffc0152818161137801528181611cb701528181612ac601528181612c4901528181613fd2015261443e0152615a1d6000f3fe608060405234801561001057600080fd5b50600436106103425760003560e01c8063635bbd10116101b8578063b7f06ebe11610104578063cf80873e116100a2578063f16172b01161007c578063f16172b014610908578063f2fde38b1461091b578063f698da251461092e578063fabc1cbc1461093657600080fd5b8063cf80873e146108c1578063da8be864146108e2578063eea9064b146108f557600080fd5b8063c488375a116100de578063c488375a146107de578063c5e480db146107fe578063c94b5111146108a4578063ca661c04146108b757600080fd5b8063b7f06ebe14610784578063bb45fef2146107a7578063c448feb8146107d557600080fd5b8063886f1195116101715780639104c3191161014b5780639104c3191461070f57806399be81c81461072a578063a17884841461073d578063b13442711461075d57600080fd5b8063886f1195146106cb5780638da5cb5b146106de57806390041347146106ef57600080fd5b8063635bbd101461063657806365da1264146106495780636d70f7ae14610672578063715018a614610685578063778e55f31461068d5780637f548071146106b857600080fd5b806328a573ae116102925780634665bcda11610230578063597b36da1161020a578063597b36da146105e55780635ac86ab7146105f85780635c975abb1461061b57806360d7faed1461062357600080fd5b80634665bcda146105ac5780634fc40b61146105d3578063595c6a67146105dd57600080fd5b806339b70e381161026c57806339b70e38146104f45780633cdeb5e0146105335780633e28391d14610562578063433773821461058557600080fd5b806328a573ae146104ae57806329c77d4f146104c157806333404396146104e157600080fd5b8063132d4967116102ff57806316928365116102d957806316928365146104285780631bbce0911461046157806320606b701461047457806322bf40e41461049b57600080fd5b8063132d4967146103ef578063136439dd146104025780631522bf021461041557600080fd5b80630449ca391461034757806304a4f9791461036d5780630b9f487a146103945780630dd8dd02146103a75780630f589e59146103c757806310d67a2f146103dc575b600080fd5b61035a61035536600461484e565b610949565b6040519081526020015b60405180910390f35b61035a7f14bde674c9f64b2ad00eaaee4a8bed1fabef35c7507e3c5b9cfc9436909a2dad81565b61035a6103a23660046148b4565b6109ce565b6103ba6103b536600461484e565b610a90565b604051610364919061490f565b6103da6103d53660046149ac565b610df9565b005b6103da6103ea3660046149ff565b610f3e565b6103da6103fd366004614a23565b610ff1565b6103da610410366004614a64565b6110a8565b6103da610423366004614a7d565b6111e7565b61035a6104363660046149ff565b6001600160a01b0316600090815260996020526040902060010154600160a01b900463ffffffff1690565b61035a61046f366004614a23565b6111fb565b61035a7f8cad95687ba82c2ce50e74f7b754645e5117c3a5bec8151c0726d5857980a86681565b6103da6104a9366004614ae8565b611229565b6103da6104bc366004614a23565b61136d565b61035a6104cf3660046149ff565b609b6020526000908152604090205481565b6103da6104ef366004614b8f565b61141d565b61051b7f000000000000000000000000000000000000000000000000000000000000000081565b6040516001600160a01b039091168152602001610364565b61051b6105413660046149ff565b6001600160a01b039081166000908152609960205260409020600101541690565b6105756105703660046149ff565b61155a565b6040519015158152602001610364565b61035a7f39111bc4a4d688e1f685123d7497d4615370152a8ee4a0593e647bd06ad8bb0b81565b61051b7f000000000000000000000000000000000000000000000000000000000000000081565b61035a6213c68081565b6103da61157a565b61035a6105f3366004614e8c565b611641565b610575610606366004614ec8565b606654600160ff9092169190911b9081161490565b60665461035a565b6103da610631366004614ef9565b611671565b6103da610644366004614a64565b61170c565b61051b6106573660046149ff565b609a602052600090815260409020546001600160a01b031681565b6105756106803660046149ff565b61171d565b6103da611757565b61035a61069b366004614f88565b609860209081526000928352604080842090915290825290205481565b6103da6106c6366004615069565b61176b565b60655461051b906001600160a01b031681565b6033546001600160a01b031661051b565b6107026106fd3660046150f9565b611997565b6040516103649190615183565b61051b73beac0eeeeeeeeeeeeeeeeeeeeeeeeeeeeeebeac081565b6103da610738366004615196565b611a71565b61035a61074b3660046149ff565b609f6020526000908152604090205481565b61051b7f000000000000000000000000000000000000000000000000000000000000000081565b610575610792366004614a64565b609e6020526000908152604090205460ff1681565b6105756107b53660046151cb565b609c60209081526000928352604080842090915290825290205460ff1681565b61035a609d5481565b61035a6107ec3660046149ff565b60a16020526000908152604090205481565b61086e61080c3660046149ff565b6040805160608082018352600080835260208084018290529284018190526001600160a01b03948516815260998352839020835191820184528054851682526001015493841691810191909152600160a01b90920463ffffffff169082015290565b6040805182516001600160a01b039081168252602080850151909116908201529181015163ffffffff1690820152606001610364565b61035a6108b23660046151f7565b611b43565b61035a62034bc081565b6108d46108cf3660046149ff565b611bfc565b604051610364929190615278565b6103ba6108f03660046149ff565b611fb4565b6103da61090336600461529d565b612478565b6103da6109163660046152f5565b612595565b6103da6109293660046149ff565b612626565b61035a61269c565b6103da610944366004614a64565b6126da565b609d54600090815b838110156109c657600060a1600087878581811061097157610971615311565b905060200201602081019061098691906149ff565b6001600160a01b03166001600160a01b03168152602001908152602001600020549050828111156109b5578092505b506109bf8161533d565b9050610951565b509392505050565b604080517f14bde674c9f64b2ad00eaaee4a8bed1fabef35c7507e3c5b9cfc9436909a2dad6020808301919091526001600160a01b038681168385015288811660608401528716608083015260a0820185905260c08083018590528351808403909101815260e0909201909252805191012060009081610a4c61269c565b60405161190160f01b602082015260228101919091526042810183905260620160408051808303601f19018152919052805160209091012098975050505050505050565b60665460609060019060029081161415610ac55760405162461bcd60e51b8152600401610abc90615358565b60405180910390fd5b6000836001600160401b03811115610adf57610adf614c31565b604051908082528060200260200182016040528015610b08578160200160208202803683370190505b50336000908152609a60205260408120549192506001600160a01b03909116905b85811015610dee57868682818110610b4357610b43615311565b9050602002810190610b55919061538f565b610b639060208101906153af565b9050878783818110610b7757610b77615311565b9050602002810190610b89919061538f565b610b9390806153af565b905014610c085760405162461bcd60e51b815260206004820152603860248201527f44656c65676174696f6e4d616e616765722e717565756557697468647261776160448201527f6c3a20696e707574206c656e677468206d69736d6174636800000000000000006064820152608401610abc565b33878783818110610c1b57610c1b615311565b9050602002810190610c2d919061538f565b610c3e9060608101906040016149ff565b6001600160a01b031614610cba5760405162461bcd60e51b815260206004820152603c60248201527f44656c65676174696f6e4d616e616765722e717565756557697468647261776160448201527f6c3a2077697468647261776572206d757374206265207374616b6572000000006064820152608401610abc565b610dbf3383898985818110610cd157610cd1615311565b9050602002810190610ce3919061538f565b610cf49060608101906040016149ff565b8a8a86818110610d0657610d06615311565b9050602002810190610d18919061538f565b610d2290806153af565b808060200260200160405190810160405280939291908181526020018383602002808284376000920191909152508e92508d9150889050818110610d6857610d68615311565b9050602002810190610d7a919061538f565b610d889060208101906153af565b8080602002602001604051908101604052809392919081815260200183836020028082843760009201919091525061283692505050565b838281518110610dd157610dd1615311565b602090810291909101015280610de68161533d565b915050610b29565b509095945050505050565b610e023361155a565b15610e885760405162461bcd60e51b815260206004820152604a60248201527f44656c65676174696f6e4d616e616765722e726567697374657241734f70657260448201527f61746f723a2063616c6c657220697320616c7265616479206163746976656c796064820152690819195b1959d85d195960b21b608482015260a401610abc565b610e923384612df6565b604080518082019091526060815260006020820152610eb43380836000612fe9565b336001600160a01b03167f8e8485583a2310d41f7c82b9427d0bd49bad74bb9cff9d3402a29d8f9b28a0e285604051610eed91906153f8565b60405180910390a2336001600160a01b03167f02a919ed0e2acad1dd90f17ef2fa4ae5462ee1339170034a8531cca4b67080908484604051610f3092919061544a565b60405180910390a250505050565b606560009054906101000a90046001600160a01b03166001600160a01b031663eab66d7a6040518163ffffffff1660e01b8152600401602060405180830381865afa158015610f91573d6000803e3d6000fd5b505050506040513d601f19601f82011682018060405250810190610fb59190615479565b6001600160a01b0316336001600160a01b031614610fe55760405162461bcd60e51b8152600401610abc90615496565b610fee8161327f565b50565b336001600160a01b037f00000000000000000000000000000000000000000000000000000000000000001614806110505750336001600160a01b037f000000000000000000000000000000000000000000000000000000000000000016145b61106c5760405162461bcd60e51b8152600401610abc906154e0565b6110758361155a565b156110a3576001600160a01b038084166000908152609a6020526040902054166110a181858585613376565b505b505050565b60655460405163237dfb4760e11b81523360048201526001600160a01b03909116906346fbf68e90602401602060405180830381865afa1580156110f0573d6000803e3d6000fd5b505050506040513d601f19601f82011682018060405250810190611114919061553d565b6111305760405162461bcd60e51b8152600401610abc9061555a565b606654818116146111a95760405162461bcd60e51b815260206004820152603860248201527f5061757361626c652e70617573653a20696e76616c696420617474656d70742060448201527f746f20756e70617573652066756e6374696f6e616c69747900000000000000006064820152608401610abc565b606681905560405181815233907fab40a374bc51de372200a8bc981af8c9ecdc08dfdaef0bb6e09f88f3c616ef3d906020015b60405180910390a250565b6111ef6133f1565b6110a18484848461344b565b6001600160a01b0383166000908152609b602052604081205461122085828686611b43565b95945050505050565b600054610100900460ff16158080156112495750600054600160ff909116105b806112635750303b158015611263575060005460ff166001145b6112c65760405162461bcd60e51b815260206004820152602e60248201527f496e697469616c697a61626c653a20636f6e747261637420697320616c72656160448201526d191e481a5b9a5d1a585b1a5e995960921b6064820152608401610abc565b6000805460ff1916600117905580156112e9576000805461ff0019166101001790555b6112f38888613671565b6112fb61375b565b609755611307896137f2565b61131086613844565b61131c8585858561344b565b8015611362576000805461ff0019169055604051600181527f7f26b83ff96e1f2b6a682f133852f6798a09c465da95921460cefb38474024989060200160405180910390a15b505050505050505050565b336001600160a01b037f00000000000000000000000000000000000000000000000000000000000000001614806113cc5750336001600160a01b037f000000000000000000000000000000000000000000000000000000000000000016145b6113e85760405162461bcd60e51b8152600401610abc906154e0565b6113f18361155a565b156110a3576001600160a01b038084166000908152609a6020526040902054166110a18185858561393e565b606654600290600490811614156114465760405162461bcd60e51b8152600401610abc90615358565b600260c95414156114995760405162461bcd60e51b815260206004820152601f60248201527f5265656e7472616e637947756172643a207265656e7472616e742063616c6c006044820152606401610abc565b600260c95560005b88811015611549576115398a8a838181106114be576114be615311565b90506020028101906114d091906155a2565b8989848181106114e2576114e2615311565b90506020028101906114f491906153af565b89898681811061150657611506615311565b9050602002013588888781811061151f5761151f615311565b905060200201602081019061153491906155b8565b6139b9565b6115428161533d565b90506114a1565b5050600160c9555050505050505050565b6001600160a01b039081166000908152609a602052604090205416151590565b60655460405163237dfb4760e11b81523360048201526001600160a01b03909116906346fbf68e90602401602060405180830381865afa1580156115c2573d6000803e3d6000fd5b505050506040513d601f19601f820116820180604052508101906115e6919061553d565b6116025760405162461bcd60e51b8152600401610abc9061555a565b600019606681905560405190815233907fab40a374bc51de372200a8bc981af8c9ecdc08dfdaef0bb6e09f88f3c616ef3d9060200160405180910390a2565b6000816040516020016116549190615649565b604051602081830303815290604052805190602001209050919050565b6066546002906004908116141561169a5760405162461bcd60e51b8152600401610abc90615358565b600260c95414156116ed5760405162461bcd60e51b815260206004820152601f60248201527f5265656e7472616e637947756172643a207265656e7472616e742063616c6c006044820152606401610abc565b600260c9556116ff86868686866139b9565b5050600160c95550505050565b6117146133f1565b610fee81613844565b60006001600160a01b0382161580159061175157506001600160a01b038083166000818152609a6020526040902054909116145b92915050565b61175f6133f1565b61176960006137f2565b565b42836020015110156117ef5760405162461bcd60e51b815260206004820152604160248201527f44656c65676174696f6e4d616e616765722e64656c6567617465546f4279536960448201527f676e61747572653a207374616b6572207369676e6174757265206578706972656064820152601960fa1b608482015260a401610abc565b6117f88561155a565b156118815760405162461bcd60e51b815260206004820152604d60248201527f44656c65676174696f6e4d616e616765722e64656c6567617465546f4279536960448201527f676e61747572653a207374616b657220697320616c726561647920616374697660648201526c195b1e4819195b1959d85d1959609a1b608482015260a401610abc565b61188a8461171d565b6119165760405162461bcd60e51b815260206004820152605160248201527f44656c65676174696f6e4d616e616765722e64656c6567617465546f4279536960448201527f676e61747572653a206f70657261746f72206973206e6f7420726567697374656064820152703932b21034b71022b4b3b2b72630bcb2b960791b608482015260a401610abc565b6000609b6000876001600160a01b03166001600160a01b0316815260200190815260200160002054905060006119528783888860200151611b43565b6001600160a01b0388166000908152609b60205260409020600184019055855190915061198290889083906141a3565b61198e87878686612fe9565b50505050505050565b6060600082516001600160401b038111156119b4576119b4614c31565b6040519080825280602002602001820160405280156119dd578160200160208202803683370190505b50905060005b83518110156109c6576001600160a01b03851660009081526098602052604081208551909190869084908110611a1b57611a1b615311565b60200260200101516001600160a01b03166001600160a01b0316815260200190815260200160002054828281518110611a5657611a56615311565b6020908102919091010152611a6a8161533d565b90506119e3565b611a7a3361171d565b611afc5760405162461bcd60e51b815260206004820152604760248201527f44656c65676174696f6e4d616e616765722e7570646174654f70657261746f7260448201527f4d657461646174615552493a2063616c6c6572206d75737420626520616e206f6064820152663832b930ba37b960c91b608482015260a401610abc565b336001600160a01b03167f02a919ed0e2acad1dd90f17ef2fa4ae5462ee1339170034a8531cca4b67080908383604051611b3792919061544a565b60405180910390a25050565b604080517f39111bc4a4d688e1f685123d7497d4615370152a8ee4a0593e647bd06ad8bb0b6020808301919091526001600160a01b0387811683850152851660608301526080820186905260a08083018590528351808403909101815260c0909201909252805191012060009081611bb961269c565b60405161190160f01b602082015260228101919091526042810183905260620160408051808303601f190181529190528051602090910120979650505050505050565b6040516360f4062b60e01b81526001600160a01b03828116600483015260609182916000917f0000000000000000000000000000000000000000000000000000000000000000909116906360f4062b90602401602060405180830381865afa158015611c6c573d6000803e3d6000fd5b505050506040513d601f19601f82011682018060405250810190611c90919061565c565b6040516394f649dd60e01b81526001600160a01b03868116600483015291925060009182917f0000000000000000000000000000000000000000000000000000000000000000909116906394f649dd90602401600060405180830381865afa158015611d00573d6000803e3d6000fd5b505050506040513d6000823e601f3d908101601f19168201604052611d2891908101906156d0565b9150915060008313611d3f57909590945092505050565b606080835160001415611df9576040805160018082528183019092529060208083019080368337505060408051600180825281830190925292945090506020808301908036833701905050905073beac0eeeeeeeeeeeeeeeeeeeeeeeeeeeeeebeac082600081518110611db457611db4615311565b60200260200101906001600160a01b031690816001600160a01b0316815250508481600081518110611de857611de8615311565b602002602001018181525050611fa7565b8351611e0690600161578a565b6001600160401b03811115611e1d57611e1d614c31565b604051908082528060200260200182016040528015611e46578160200160208202803683370190505b50915081516001600160401b03811115611e6257611e62614c31565b604051908082528060200260200182016040528015611e8b578160200160208202803683370190505b50905060005b8451811015611f2557848181518110611eac57611eac615311565b6020026020010151838281518110611ec657611ec6615311565b60200260200101906001600160a01b031690816001600160a01b031681525050838181518110611ef857611ef8615311565b6020026020010151828281518110611f1257611f12615311565b6020908102919091010152600101611e91565b5073beac0eeeeeeeeeeeeeeeeeeeeeeeeeeeeeebeac08260018451611f4a91906157a2565b81518110611f5a57611f5a615311565b60200260200101906001600160a01b031690816001600160a01b031681525050848160018451611f8a91906157a2565b81518110611f9a57611f9a615311565b6020026020010181815250505b9097909650945050505050565b60665460609060019060029081161415611fe05760405162461bcd60e51b8152600401610abc90615358565b611fe98361155a565b6120695760405162461bcd60e51b8152602060048201526044602482018190527f44656c65676174696f6e4d616e616765722e756e64656c65676174653a207374908201527f616b6572206d7573742062652064656c65676174656420746f20756e64656c656064820152636761746560e01b608482015260a401610abc565b6120728361171d565b156120e55760405162461bcd60e51b815260206004820152603d60248201527f44656c65676174696f6e4d616e616765722e756e64656c65676174653a206f7060448201527f657261746f72732063616e6e6f7420626520756e64656c6567617465640000006064820152608401610abc565b6001600160a01b0383166121615760405162461bcd60e51b815260206004820152603c60248201527f44656c65676174696f6e4d616e616765722e756e64656c65676174653a20636160448201527f6e6e6f7420756e64656c6567617465207a65726f2061646472657373000000006064820152608401610abc565b6001600160a01b038084166000818152609a6020526040902054909116903314806121945750336001600160a01b038216145b806121bb57506001600160a01b038181166000908152609960205260409020600101541633145b61222d5760405162461bcd60e51b815260206004820152603d60248201527f44656c65676174696f6e4d616e616765722e756e64656c65676174653a20636160448201527f6c6c65722063616e6e6f7420756e64656c6567617465207374616b65720000006064820152608401610abc565b60008061223986611bfc565b9092509050336001600160a01b0387161461228f57826001600160a01b0316866001600160a01b03167ff0eddf07e6ea14f388b47e1e94a0f464ecbd9eed4171130e0fc0e99fb4030a8a60405160405180910390a35b826001600160a01b0316866001600160a01b03167ffee30966a256b71e14bc0ebfc94315e28ef4a97a7131a9e2b7a310a73af4467660405160405180910390a36001600160a01b0386166000908152609a6020526040902080546001600160a01b0319169055815161231157604080516000815260208101909152945061246f565b81516001600160401b0381111561232a5761232a614c31565b604051908082528060200260200182016040528015612353578160200160208202803683370190505b50945060005b825181101561246d576040805160018082528183019092526000916020808301908036833750506040805160018082528183019092529293506000929150602080830190803683370190505090508483815181106123b9576123b9615311565b6020026020010151826000815181106123d4576123d4615311565b60200260200101906001600160a01b031690816001600160a01b03168152505083838151811061240657612406615311565b60200260200101518160008151811061242157612421615311565b60200260200101818152505061243a89878b8585612836565b88848151811061244c5761244c615311565b602002602001018181525050505080806124659061533d565b915050612359565b505b50505050919050565b6124813361155a565b156124ff5760405162461bcd60e51b815260206004820152604260248201527f44656c65676174696f6e4d616e616765722e64656c6567617465546f3a20737460448201527f616b657220697320616c7265616479206163746976656c792064656c65676174606482015261195960f21b608482015260a401610abc565b6125088361171d565b6125895760405162461bcd60e51b815260206004820152604660248201527f44656c65676174696f6e4d616e616765722e64656c6567617465546f3a206f7060448201527f657261746f72206973206e6f74207265676973746572656420696e2045696765606482015265372630bcb2b960d11b608482015260a401610abc565b6110a333848484612fe9565b61259e3361171d565b61261c5760405162461bcd60e51b815260206004820152604360248201527f44656c65676174696f6e4d616e616765722e6d6f646966794f70657261746f7260448201527f44657461696c733a2063616c6c6572206d75737420626520616e206f706572616064820152623a37b960e91b608482015260a401610abc565b610fee3382612df6565b61262e6133f1565b6001600160a01b0381166126935760405162461bcd60e51b815260206004820152602660248201527f4f776e61626c653a206e6577206f776e657220697320746865207a65726f206160448201526564647265737360d01b6064820152608401610abc565b610fee816137f2565b60007f00000000000000000000000000000000000000000000000000000000000000004614156126cd575060975490565b6126d561375b565b905090565b606560009054906101000a90046001600160a01b03166001600160a01b031663eab66d7a6040518163ffffffff1660e01b8152600401602060405180830381865afa15801561272d573d6000803e3d6000fd5b505050506040513d601f19601f820116820180604052508101906127519190615479565b6001600160a01b0316336001600160a01b0316146127815760405162461bcd60e51b8152600401610abc90615496565b6066541981196066541916146127ff5760405162461bcd60e51b815260206004820152603860248201527f5061757361626c652e756e70617573653a20696e76616c696420617474656d7060448201527f7420746f2070617573652066756e6374696f6e616c69747900000000000000006064820152608401610abc565b606681905560405181815233907f3582d1828e26bf56bd801502bc021ac0bc8afb57c826e4986b45593c8fad389c906020016111dc565b60006001600160a01b0386166128cd5760405162461bcd60e51b815260206004820152605060248201527f44656c65676174696f6e4d616e616765722e5f72656d6f76655368617265734160448201527f6e6451756575655769746864726177616c3a207374616b65722063616e6e6f7460648201526f206265207a65726f206164647265737360801b608482015260a401610abc565b82516129575760405162461bcd60e51b815260206004820152604d60248201527f44656c65676174696f6e4d616e616765722e5f72656d6f76655368617265734160448201527f6e6451756575655769746864726177616c3a207374726174656769657320636160648201526c6e6e6f7420626520656d70747960981b608482015260a401610abc565b60005b8351811015612d04576001600160a01b038616156129b0576129b0868886848151811061298957612989615311565b60200260200101518685815181106129a3576129a3615311565b6020026020010151613376565b73beac0eeeeeeeeeeeeeeeeeeeeeeeeeeeeeebeac06001600160a01b03168482815181106129e0576129e0615311565b60200260200101516001600160a01b03161415612aa9577f00000000000000000000000000000000000000000000000000000000000000006001600160a01b031663beffbb8988858481518110612a3957612a39615311565b60200260200101516040518363ffffffff1660e01b8152600401612a729291906001600160a01b03929092168252602082015260400190565b600060405180830381600087803b158015612a8c57600080fd5b505af1158015612aa0573d6000803e3d6000fd5b50505050612cfc565b846001600160a01b0316876001600160a01b03161480612b7b57507f00000000000000000000000000000000000000000000000000000000000000006001600160a01b0316639b4da03d858381518110612b0557612b05615311565b60200260200101516040518263ffffffff1660e01b8152600401612b3891906001600160a01b0391909116815260200190565b602060405180830381865afa158015612b55573d6000803e3d6000fd5b505050506040513d601f19601f82011682018060405250810190612b79919061553d565b155b612c475760405162461bcd60e51b8152602060048201526084602482018190527f44656c65676174696f6e4d616e616765722e5f72656d6f76655368617265734160448301527f6e6451756575655769746864726177616c3a2077697468647261776572206d7560648301527f73742062652073616d652061646472657373206173207374616b657220696620908201527f746869726450617274795472616e7366657273466f7262696464656e2061726560a482015263081cd95d60e21b60c482015260e401610abc565b7f00000000000000000000000000000000000000000000000000000000000000006001600160a01b0316638c80d4e588868481518110612c8957612c89615311565b6020026020010151868581518110612ca357612ca3615311565b60200260200101516040518463ffffffff1660e01b8152600401612cc9939291906157b9565b600060405180830381600087803b158015612ce357600080fd5b505af1158015612cf7573d6000803e3d6000fd5b505050505b60010161295a565b506001600160a01b0386166000908152609f60205260408120805491829190612d2c8361533d565b919050555060006040518060e00160405280896001600160a01b03168152602001886001600160a01b03168152602001876001600160a01b031681526020018381526020014363ffffffff1681526020018681526020018581525090506000612d9482611641565b6000818152609e602052604090819020805460ff19166001179055519091507f9009ab153e8014fbfb02f2217f5cde7aa7f9ad734ae85ca3ee3f4ca2fdd499f990612de290839085906157dd565b60405180910390a198975050505050505050565b6213c680612e0a60608301604084016157f6565b63ffffffff161115612ebf5760405162461bcd60e51b815260206004820152606c60248201527f44656c65676174696f6e4d616e616765722e5f7365744f70657261746f72446560448201527f7461696c733a207374616b65724f70744f757457696e646f77426c6f636b732060648201527f63616e6e6f74206265203e204d41585f5354414b45525f4f50545f4f55545f5760848201526b494e444f575f424c4f434b5360a01b60a482015260c401610abc565b6001600160a01b0382166000908152609960205260409081902060010154600160a01b900463ffffffff1690612efb90606084019084016157f6565b63ffffffff161015612f915760405162461bcd60e51b815260206004820152605360248201527f44656c65676174696f6e4d616e616765722e5f7365744f70657261746f72446560448201527f7461696c733a207374616b65724f70744f757457696e646f77426c6f636b732060648201527218d85b9b9bdd08189948191958dc99585cd959606a1b608482015260a401610abc565b6001600160a01b03821660009081526099602052604090208190612fb58282615833565b505060405133907ffebe5cd24b2cbc7b065b9d0fdeb904461e4afcff57dd57acda1e7832031ba7ac90611b379084906153f8565b606654600090600190811614156130125760405162461bcd60e51b8152600401610abc90615358565b6001600160a01b038085166000908152609960205260409020600101541680158015906130485750336001600160a01b03821614155b801561305d5750336001600160a01b03861614155b156131ca5742846020015110156130dc5760405162461bcd60e51b815260206004820152603760248201527f44656c65676174696f6e4d616e616765722e5f64656c65676174653a2061707060448201527f726f766572207369676e617475726520657870697265640000000000000000006064820152608401610abc565b6001600160a01b0381166000908152609c6020908152604080832086845290915290205460ff16156131765760405162461bcd60e51b815260206004820152603760248201527f44656c65676174696f6e4d616e616765722e5f64656c65676174653a2061707060448201527f726f76657253616c7420616c7265616479207370656e740000000000000000006064820152608401610abc565b6001600160a01b0381166000908152609c6020908152604080832086845282528220805460ff191660011790558501516131b79088908890859088906109ce565b90506131c8828287600001516141a3565b505b6001600160a01b038681166000818152609a602052604080822080546001600160a01b031916948a169485179055517fc3ee9f2e5fda98e8066a1f745b2df9285f416fe98cf2559cd21484b3d87433049190a360008061322988611bfc565b9150915060005b825181101561136257613277888a85848151811061325057613250615311565b602002602001015185858151811061326a5761326a615311565b602002602001015161393e565b600101613230565b6001600160a01b03811661330d5760405162461bcd60e51b815260206004820152604960248201527f5061757361626c652e5f73657450617573657252656769737472793a206e657760448201527f50617573657252656769737472792063616e6e6f7420626520746865207a65726064820152686f206164647265737360b81b608482015260a401610abc565b606554604080516001600160a01b03928316815291831660208301527f6e9fcd539896fca60e8b0f01dd580233e48a6b0f7df013b89ba7f565869acdb6910160405180910390a1606580546001600160a01b0319166001600160a01b0392909216919091179055565b6001600160a01b038085166000908152609860209081526040808320938616835292905290812080548392906133ad9084906157a2565b92505081905550836001600160a01b03167f6909600037b75d7b4733aedd815442b5ec018a827751c832aaff64eba5d6d2dd848484604051610f30939291906157b9565b6033546001600160a01b031633146117695760405162461bcd60e51b815260206004820181905260248201527f4f776e61626c653a2063616c6c6572206973206e6f7420746865206f776e65726044820152606401610abc565b8281146134d35760405162461bcd60e51b815260206004820152604a60248201527f44656c65676174696f6e4d616e616765722e5f7365745374726174656779576960448201527f746864726177616c44656c6179426c6f636b733a20696e707574206c656e67746064820152690d040dad2e6dac2e8c6d60b31b608482015260a401610abc565b8260005b818110156136695760008686838181106134f3576134f3615311565b905060200201602081019061350891906149ff565b6001600160a01b038116600090815260a1602052604081205491925086868581811061353657613536615311565b90506020020135905062034bc08111156135fa5760405162461bcd60e51b815260206004820152607360248201527f44656c65676174696f6e4d616e616765722e5f7365745374726174656779576960448201527f746864726177616c44656c6179426c6f636b733a205f7769746864726177616c60648201527f44656c6179426c6f636b732063616e6e6f74206265203e204d41585f5749544860848201527244524157414c5f44454c41595f424c4f434b5360681b60a482015260c401610abc565b6001600160a01b038316600081815260a160209081526040918290208490558151928352820184905281018290527f0e7efa738e8b0ce6376a0c1af471655540d2e9a81647d7b09ed823018426576d9060600160405180910390a1505050806136629061533d565b90506134d7565b505050505050565b6065546001600160a01b031615801561369257506001600160a01b03821615155b6137145760405162461bcd60e51b815260206004820152604760248201527f5061757361626c652e5f696e697469616c697a655061757365723a205f696e6960448201527f7469616c697a6550617573657228292063616e206f6e6c792062652063616c6c6064820152666564206f6e636560c81b608482015260a401610abc565b606681905560405181815233907fab40a374bc51de372200a8bc981af8c9ecdc08dfdaef0bb6e09f88f3c616ef3d9060200160405180910390a26137578261327f565b5050565b604080518082018252600a81526922b4b3b2b72630bcb2b960b11b60209182015281517f8cad95687ba82c2ce50e74f7b754645e5117c3a5bec8151c0726d5857980a866818301527f71b625cfad44bac63b13dba07f2e1d6084ee04b6f8752101ece6126d584ee6ea81840152466060820152306080808301919091528351808303909101815260a0909101909252815191012090565b603380546001600160a01b038381166001600160a01b0319831681179093556040519116919082907f8be0079c531659141344cd1fd0a4f28419497f9722a3daafe3b4186f6b6457e090600090a35050565b62034bc08111156138fd5760405162461bcd60e51b815260206004820152607160248201527f44656c65676174696f6e4d616e616765722e5f7365744d696e5769746864726160448201527f77616c44656c6179426c6f636b733a205f6d696e5769746864726177616c446560648201527f6c6179426c6f636b732063616e6e6f74206265203e204d41585f5749544844526084820152704157414c5f44454c41595f424c4f434b5360781b60a482015260c401610abc565b609d5460408051918252602082018390527fafa003cd76f87ff9d62b35beea889920f33c0c42b8d45b74954d61d50f4b6b69910160405180910390a1609d55565b6001600160a01b0380851660009081526098602090815260408083209386168352929052908120805483929061397590849061578a565b92505081905550836001600160a01b03167f1ec042c965e2edd7107b51188ee0f383e22e76179041ab3a9d18ff151405166c848484604051610f30939291906157b9565b60006139c76105f387615896565b6000818152609e602052604090205490915060ff16613a485760405162461bcd60e51b815260206004820152604360248201526000805160206159c883398151915260448201527f645769746864726177616c3a20616374696f6e206973206e6f7420696e20717560648201526265756560e81b608482015260a401610abc565b609d544390613a5d60a0890160808a016157f6565b63ffffffff16613a6d919061578a565b1115613af55760405162461bcd60e51b815260206004820152605f60248201526000805160206159c883398151915260448201527f645769746864726177616c3a206d696e5769746864726177616c44656c61794260648201527f6c6f636b7320706572696f6420686173206e6f74207965742070617373656400608482015260a401610abc565b613b0560608701604088016149ff565b6001600160a01b0316336001600160a01b031614613b925760405162461bcd60e51b815260206004820152605060248201526000805160206159c883398151915260448201527f645769746864726177616c3a206f6e6c7920776974686472617765722063616e60648201526f1031b7b6b83632ba329030b1ba34b7b760811b608482015260a401610abc565b8115613c1457613ba560a08701876153af565b85149050613c145760405162461bcd60e51b815260206004820152604260248201526000805160206159c883398151915260448201527f645769746864726177616c3a20696e707574206c656e677468206d69736d61746064820152610c6d60f31b608482015260a401610abc565b6000818152609e60205260409020805460ff191690558115613d795760005b613c4060a08801886153af565b9050811015613d73574360a16000613c5b60a08b018b6153af565b85818110613c6b57613c6b615311565b9050602002016020810190613c8091906149ff565b6001600160a01b03168152602081019190915260400160002054613caa60a08a0160808b016157f6565b63ffffffff16613cba919061578a565b1115613cd85760405162461bcd60e51b8152600401610abc906158a2565b613d6b613ce860208901896149ff565b33613cf660a08b018b6153af565b85818110613d0657613d06615311565b9050602002016020810190613d1b91906149ff565b613d2860c08c018c6153af565b86818110613d3857613d38615311565b905060200201358a8a87818110613d5157613d51615311565b9050602002016020810190613d6691906149ff565b61435d565b600101613c33565b50614168565b336000908152609a60205260408120546001600160a01b0316905b613da160a08901896153af565b9050811015614165574360a16000613dbc60a08c018c6153af565b85818110613dcc57613dcc615311565b9050602002016020810190613de191906149ff565b6001600160a01b03168152602081019190915260400160002054613e0b60a08b0160808c016157f6565b63ffffffff16613e1b919061578a565b1115613e395760405162461bcd60e51b8152600401610abc906158a2565b73beac0eeeeeeeeeeeeeeeeeeeeeeeeeeeeeebeac0613e5b60a08a018a6153af565b83818110613e6b57613e6b615311565b9050602002016020810190613e8091906149ff565b6001600160a01b03161415613fd0576000613e9e60208a018a6149ff565b905060006001600160a01b037f000000000000000000000000000000000000000000000000000000000000000016630e81073c83613edf60c08e018e6153af565b87818110613eef57613eef615311565b6040516001600160e01b031960e087901b1681526001600160a01b03909416600485015260200291909101356024830152506044016020604051808303816000875af1158015613f43573d6000803e3d6000fd5b505050506040513d601f19601f82011682018060405250810190613f67919061565c565b6001600160a01b038084166000908152609a6020526040902054919250168015613fc857613fc88184613f9d60a08f018f6153af565b88818110613fad57613fad615311565b9050602002016020810190613fc291906149ff565b8561393e565b50505061415d565b7f00000000000000000000000000000000000000000000000000000000000000006001600160a01b031663c4623ea13389898581811061401257614012615311565b905060200201602081019061402791906149ff565b61403460a08d018d6153af565b8681811061404457614044615311565b905060200201602081019061405991906149ff565b61406660c08e018e6153af565b8781811061407657614076615311565b60405160e088901b6001600160e01b03191681526001600160a01b03968716600482015294861660248601529290941660448401526020909102013560648201526084019050600060405180830381600087803b1580156140d657600080fd5b505af11580156140ea573d6000803e3d6000fd5b505050506001600160a01b0382161561415d5761415d823361410f60a08c018c6153af565b8581811061411f5761411f615311565b905060200201602081019061413491906149ff565b61414160c08d018d6153af565b8681811061415157614151615311565b9050602002013561393e565b600101613d94565b50505b6040518181527fc97098c2f658800b4df29001527f7324bcdffcf6e8751a699ab920a1eced5b1d9060200160405180910390a1505050505050565b6001600160a01b0383163b156142bd57604051630b135d3f60e11b808252906001600160a01b03851690631626ba7e906141e3908690869060040161592a565b602060405180830381865afa158015614200573d6000803e3d6000fd5b505050506040513d601f19601f820116820180604052508101906142249190615987565b6001600160e01b031916146110a35760405162461bcd60e51b815260206004820152605360248201527f454950313237315369676e61747572655574696c732e636865636b5369676e6160448201527f747572655f454950313237313a2045524331323731207369676e6174757265206064820152721d995c9a599a58d85d1a5bdb8819985a5b1959606a1b608482015260a401610abc565b826001600160a01b03166142d1838361449d565b6001600160a01b0316146110a35760405162461bcd60e51b815260206004820152604760248201527f454950313237315369676e61747572655574696c732e636865636b5369676e6160448201527f747572655f454950313237313a207369676e6174757265206e6f742066726f6d6064820152661039b4b3b732b960c91b608482015260a401610abc565b6001600160a01b03831673beac0eeeeeeeeeeeeeeeeeeeeeeeeeeeeeebeac014156144085760405162387b1360e81b81526001600160a01b037f0000000000000000000000000000000000000000000000000000000000000000169063387b1300906143d1908890889087906004016157b9565b600060405180830381600087803b1580156143eb57600080fd5b505af11580156143ff573d6000803e3d6000fd5b50505050614496565b60405163c608c7f360e01b81526001600160a01b03858116600483015284811660248301526044820184905282811660648301527f0000000000000000000000000000000000000000000000000000000000000000169063c608c7f390608401600060405180830381600087803b15801561448257600080fd5b505af1158015611362573d6000803e3d6000fd5b5050505050565b60008060006144ac85856144b9565b915091506109c681614529565b6000808251604114156144f05760208301516040840151606085015160001a6144e4878285856146e4565b94509450505050614522565b82516040141561451a576020830151604084015161450f8683836147d1565b935093505050614522565b506000905060025b9250929050565b600081600481111561453d5761453d6159b1565b14156145465750565b600181600481111561455a5761455a6159b1565b14156145a85760405162461bcd60e51b815260206004820152601860248201527f45434453413a20696e76616c6964207369676e617475726500000000000000006044820152606401610abc565b60028160048111156145bc576145bc6159b1565b141561460a5760405162461bcd60e51b815260206004820152601f60248201527f45434453413a20696e76616c6964207369676e6174757265206c656e677468006044820152606401610abc565b600381600481111561461e5761461e6159b1565b14156146775760405162461bcd60e51b815260206004820152602260248201527f45434453413a20696e76616c6964207369676e6174757265202773272076616c604482015261756560f01b6064820152608401610abc565b600481600481111561468b5761468b6159b1565b1415610fee5760405162461bcd60e51b815260206004820152602260248201527f45434453413a20696e76616c6964207369676e6174757265202776272076616c604482015261756560f01b6064820152608401610abc565b6000807f7fffffffffffffffffffffffffffffff5d576e7357a4501ddfe92f46681b20a083111561471b57506000905060036147c8565b8460ff16601b1415801561473357508460ff16601c14155b1561474457506000905060046147c8565b6040805160008082526020820180845289905260ff881692820192909252606081018690526080810185905260019060a0016020604051602081039080840390855afa158015614798573d6000803e3d6000fd5b5050604051601f1901519150506001600160a01b0381166147c1576000600192509250506147c8565b9150600090505b94509492505050565b6000806001600160ff1b038316816147ee60ff86901c601b61578a565b90506147fc878288856146e4565b935093505050935093915050565b60008083601f84011261481c57600080fd5b5081356001600160401b0381111561483357600080fd5b6020830191508360208260051b850101111561452257600080fd5b6000806020838503121561486157600080fd5b82356001600160401b0381111561487757600080fd5b6148838582860161480a565b90969095509350505050565b6001600160a01b0381168114610fee57600080fd5b80356148af8161488f565b919050565b600080600080600060a086880312156148cc57600080fd5b85356148d78161488f565b945060208601356148e78161488f565b935060408601356148f78161488f565b94979396509394606081013594506080013592915050565b6020808252825182820181905260009190848201906040850190845b818110156149475783518352928401929184019160010161492b565b50909695505050505050565b60006060828403121561496557600080fd5b50919050565b60008083601f84011261497d57600080fd5b5081356001600160401b0381111561499457600080fd5b60208301915083602082850101111561452257600080fd5b6000806000608084860312156149c157600080fd5b6149cb8585614953565b925060608401356001600160401b038111156149e657600080fd5b6149f28682870161496b565b9497909650939450505050565b600060208284031215614a1157600080fd5b8135614a1c8161488f565b9392505050565b600080600060608486031215614a3857600080fd5b8335614a438161488f565b92506020840135614a538161488f565b929592945050506040919091013590565b600060208284031215614a7657600080fd5b5035919050565b60008060008060408587031215614a9357600080fd5b84356001600160401b0380821115614aaa57600080fd5b614ab68883890161480a565b90965094506020870135915080821115614acf57600080fd5b50614adc8782880161480a565b95989497509550505050565b60008060008060008060008060c0898b031215614b0457600080fd5b8835614b0f8161488f565b97506020890135614b1f8161488f565b9650604089013595506060890135945060808901356001600160401b0380821115614b4957600080fd5b614b558c838d0161480a565b909650945060a08b0135915080821115614b6e57600080fd5b50614b7b8b828c0161480a565b999c989b5096995094979396929594505050565b6000806000806000806000806080898b031215614bab57600080fd5b88356001600160401b0380821115614bc257600080fd5b614bce8c838d0161480a565b909a50985060208b0135915080821115614be757600080fd5b614bf38c838d0161480a565b909850965060408b0135915080821115614c0c57600080fd5b614c188c838d0161480a565b909650945060608b0135915080821115614b6e57600080fd5b634e487b7160e01b600052604160045260246000fd5b60405160e081016001600160401b0381118282101715614c6957614c69614c31565b60405290565b604080519081016001600160401b0381118282101715614c6957614c69614c31565b604051601f8201601f191681016001600160401b0381118282101715614cb957614cb9614c31565b604052919050565b63ffffffff81168114610fee57600080fd5b80356148af81614cc1565b60006001600160401b03821115614cf757614cf7614c31565b5060051b60200190565b600082601f830112614d1257600080fd5b81356020614d27614d2283614cde565b614c91565b82815260059290921b84018101918181019086841115614d4657600080fd5b8286015b84811015614d6a578035614d5d8161488f565b8352918301918301614d4a565b509695505050505050565b600082601f830112614d8657600080fd5b81356020614d96614d2283614cde565b82815260059290921b84018101918181019086841115614db557600080fd5b8286015b84811015614d6a5780358352918301918301614db9565b600060e08284031215614de257600080fd5b614dea614c47565b9050614df5826148a4565b8152614e03602083016148a4565b6020820152614e14604083016148a4565b604082015260608201356060820152614e2f60808301614cd3565b608082015260a08201356001600160401b0380821115614e4e57600080fd5b614e5a85838601614d01565b60a084015260c0840135915080821115614e7357600080fd5b50614e8084828501614d75565b60c08301525092915050565b600060208284031215614e9e57600080fd5b81356001600160401b03811115614eb457600080fd5b614ec084828501614dd0565b949350505050565b600060208284031215614eda57600080fd5b813560ff81168114614a1c57600080fd5b8015158114610fee57600080fd5b600080600080600060808688031215614f1157600080fd5b85356001600160401b0380821115614f2857600080fd5b9087019060e0828a031215614f3c57600080fd5b90955060208701359080821115614f5257600080fd5b50614f5f8882890161480a565b909550935050604086013591506060860135614f7a81614eeb565b809150509295509295909350565b60008060408385031215614f9b57600080fd5b8235614fa68161488f565b91506020830135614fb68161488f565b809150509250929050565b600060408284031215614fd357600080fd5b614fdb614c6f565b905081356001600160401b0380821115614ff457600080fd5b818401915084601f83011261500857600080fd5b813560208282111561501c5761501c614c31565b61502e601f8301601f19168201614c91565b9250818352868183860101111561504457600080fd5b8181850182850137600081838501015282855280860135818601525050505092915050565b600080600080600060a0868803121561508157600080fd5b853561508c8161488f565b9450602086013561509c8161488f565b935060408601356001600160401b03808211156150b857600080fd5b6150c489838a01614fc1565b945060608801359150808211156150da57600080fd5b506150e788828901614fc1565b95989497509295608001359392505050565b6000806040838503121561510c57600080fd5b82356151178161488f565b915060208301356001600160401b0381111561513257600080fd5b61513e85828601614d01565b9150509250929050565b600081518084526020808501945080840160005b838110156151785781518752958201959082019060010161515c565b509495945050505050565b602081526000614a1c6020830184615148565b600080602083850312156151a957600080fd5b82356001600160401b038111156151bf57600080fd5b6148838582860161496b565b600080604083850312156151de57600080fd5b82356151e98161488f565b946020939093013593505050565b6000806000806080858703121561520d57600080fd5b84356152188161488f565b935060208501359250604085013561522f8161488f565b9396929550929360600135925050565b600081518084526020808501945080840160005b838110156151785781516001600160a01b031687529582019590820190600101615253565b60408152600061528b604083018561523f565b82810360208401526112208185615148565b6000806000606084860312156152b257600080fd5b83356152bd8161488f565b925060208401356001600160401b038111156152d857600080fd5b6152e486828701614fc1565b925050604084013590509250925092565b60006060828403121561530757600080fd5b614a1c8383614953565b634e487b7160e01b600052603260045260246000fd5b634e487b7160e01b600052601160045260246000fd5b600060001982141561535157615351615327565b5060010190565b60208082526019908201527f5061757361626c653a20696e6465782069732070617573656400000000000000604082015260600190565b60008235605e198336030181126153a557600080fd5b9190910192915050565b6000808335601e198436030181126153c657600080fd5b8301803591506001600160401b038211156153e057600080fd5b6020019150600581901b360382131561452257600080fd5b6060810182356154078161488f565b6001600160a01b0390811683526020840135906154238261488f565b166020830152604083013561543781614cc1565b63ffffffff811660408401525092915050565b60208152816020820152818360408301376000818301604090810191909152601f909201601f19160101919050565b60006020828403121561548b57600080fd5b8151614a1c8161488f565b6020808252602a908201527f6d73672e73656e646572206973206e6f74207065726d697373696f6e6564206160408201526939903ab73830bab9b2b960b11b606082015260800190565b60208082526037908201527f44656c65676174696f6e4d616e616765723a206f6e6c7953747261746567794d60408201527f616e616765724f72456967656e506f644d616e61676572000000000000000000606082015260800190565b60006020828403121561554f57600080fd5b8151614a1c81614eeb565b60208082526028908201527f6d73672e73656e646572206973206e6f74207065726d697373696f6e6564206160408201526739903830bab9b2b960c11b606082015260800190565b6000823560de198336030181126153a557600080fd5b6000602082840312156155ca57600080fd5b8135614a1c81614eeb565b600060018060a01b03808351168452806020840151166020850152806040840151166040850152506060820151606084015263ffffffff608083015116608084015260a082015160e060a085015261563060e085018261523f565b905060c083015184820360c08601526112208282615148565b602081526000614a1c60208301846155d5565b60006020828403121561566e57600080fd5b5051919050565b600082601f83011261568657600080fd5b81516020615696614d2283614cde565b82815260059290921b840181019181810190868411156156b557600080fd5b8286015b84811015614d6a57805183529183019183016156b9565b600080604083850312156156e357600080fd5b82516001600160401b03808211156156fa57600080fd5b818501915085601f83011261570e57600080fd5b8151602061571e614d2283614cde565b82815260059290921b8401810191818101908984111561573d57600080fd5b948201945b838610156157645785516157558161488f565b82529482019490820190615742565b9188015191965090935050508082111561577d57600080fd5b5061513e85828601615675565b6000821982111561579d5761579d615327565b500190565b6000828210156157b4576157b4615327565b500390565b6001600160a01b039384168152919092166020820152604081019190915260600190565b828152604060208201526000614ec060408301846155d5565b60006020828403121561580857600080fd5b8135614a1c81614cc1565b80546001600160a01b0319166001600160a01b0392909216919091179055565b813561583e8161488f565b6158488183615813565b5060018101602083013561585b8161488f565b6158658183615813565b50604083013561587481614cc1565b815463ffffffff60a01b191660a09190911b63ffffffff60a01b161790555050565b60006117513683614dd0565b6020808252606e908201526000805160206159c883398151915260408201527f645769746864726177616c3a207769746864726177616c44656c6179426c6f6360608201527f6b7320706572696f6420686173206e6f74207965742070617373656420666f7260808201526d207468697320737472617465677960901b60a082015260c00190565b82815260006020604081840152835180604085015260005b8181101561595e57858101830151858201606001528201615942565b81811115615970576000606083870101525b50601f01601f191692909201606001949350505050565b60006020828403121561599957600080fd5b81516001600160e01b031981168114614a1c57600080fd5b634e487b7160e01b600052602160045260246000fdfe44656c65676174696f6e4d616e616765722e5f636f6d706c6574655175657565a264697066735822122083e33861168d018c31492e936c19fa2206ca2b8218f647b729d4bb30e7bd225364736f6c634300080c0033","linkReferences":{}},"methodIdentifiers":{"DELEGATION_APPROVAL_TYPEHASH()":"04a4f979","DOMAIN_TYPEHASH()":"20606b70","MAX_STAKER_OPT_OUT_WINDOW_BLOCKS()":"4fc40b61","MAX_WITHDRAWAL_DELAY_BLOCKS()":"ca661c04","STAKER_DELEGATION_TYPEHASH()":"43377382","beaconChainETHStrategy()":"9104c319","calculateCurrentStakerDelegationDigestHash(address,address,uint256)":"1bbce091","calculateDelegationApprovalDigestHash(address,address,address,bytes32,uint256)":"0b9f487a","calculateStakerDelegationDigestHash(address,uint256,address,uint256)":"c94b5111","calculateWithdrawalRoot((address,address,address,uint256,uint32,address[],uint256[]))":"597b36da","completeQueuedWithdrawal((address,address,address,uint256,uint32,address[],uint256[]),address[],uint256,bool)":"60d7faed","completeQueuedWithdrawals((address,address,address,uint256,uint32,address[],uint256[])[],address[][],uint256[],bool[])":"33404396","cumulativeWithdrawalsQueued(address)":"a1788484","decreaseDelegatedShares(address,address,uint256)":"132d4967","delegateTo(address,(bytes,uint256),bytes32)":"eea9064b","delegateToBySignature(address,address,(bytes,uint256),(bytes,uint256),bytes32)":"7f548071","delegatedTo(address)":"65da1264","delegationApprover(address)":"3cdeb5e0","delegationApproverSaltIsSpent(address,bytes32)":"bb45fef2","domainSeparator()":"f698da25","eigenPodManager()":"4665bcda","getDelegatableShares(address)":"cf80873e","getOperatorShares(address,address[])":"90041347","getWithdrawalDelay(address[])":"0449ca39","increaseDelegatedShares(address,address,uint256)":"28a573ae","initialize(address,address,uint256,uint256,address[],uint256[])":"22bf40e4","isDelegated(address)":"3e28391d","isOperator(address)":"6d70f7ae","minWithdrawalDelayBlocks()":"c448feb8","modifyOperatorDetails((address,address,uint32))":"f16172b0","operatorDetails(address)":"c5e480db","operatorShares(address,address)":"778e55f3","owner()":"8da5cb5b","pause(uint256)":"136439dd","pauseAll()":"595c6a67","paused()":"5c975abb","paused(uint8)":"5ac86ab7","pauserRegistry()":"886f1195","pendingWithdrawals(bytes32)":"b7f06ebe","queueWithdrawals((address[],uint256[],address)[])":"0dd8dd02","registerAsOperator((address,address,uint32),string)":"0f589e59","renounceOwnership()":"715018a6","setMinWithdrawalDelayBlocks(uint256)":"635bbd10","setPauserRegistry(address)":"10d67a2f","setStrategyWithdrawalDelayBlocks(address[],uint256[])":"1522bf02","slasher()":"b1344271","stakerNonce(address)":"29c77d4f","stakerOptOutWindowBlocks(address)":"16928365","strategyManager()":"39b70e38","strategyWithdrawalDelayBlocks(address)":"c488375a","transferOwnership(address)":"f2fde38b","undelegate(address)":"da8be864","unpause(uint256)":"fabc1cbc","updateOperatorMetadataURI(string)":"99be81c8"},"id":119}